{
  "contractName": "Ballot",
  "abi": [
    {
      "inputs": [
        {
          "internalType": "bytes32[]",
          "name": "candidateNames",
          "type": "bytes32[]"
        },
        {
          "internalType": "bytes32",
          "name": "district",
          "type": "bytes32"
        },
        {
          "internalType": "uint256",
          "name": "amountOfHours",
          "type": "uint256"
        }
      ],
      "payable": false,
      "stateMutability": "nonpayable",
      "type": "constructor"
    },
    {
      "constant": true,
      "inputs": [
        {
          "internalType": "uint256",
          "name": "",
          "type": "uint256"
        }
      ],
      "name": "candidates",
      "outputs": [
        {
          "internalType": "bytes32",
          "name": "name",
          "type": "bytes32"
        },
        {
          "internalType": "uint256",
          "name": "voteCount",
          "type": "uint256"
        },
        {
          "internalType": "uint256",
          "name": "creationDate",
          "type": "uint256"
        },
        {
          "internalType": "uint256",
          "name": "expirationDate",
          "type": "uint256"
        }
      ],
      "payable": false,
      "stateMutability": "view",
      "type": "function"
    },
    {
      "constant": true,
      "inputs": [],
      "name": "manager",
      "outputs": [
        {
          "internalType": "address",
          "name": "",
          "type": "address"
        }
      ],
      "payable": false,
      "stateMutability": "view",
      "type": "function"
    },
    {
      "constant": true,
      "inputs": [
        {
          "internalType": "address",
          "name": "",
          "type": "address"
        }
      ],
      "name": "voters",
      "outputs": [
        {
          "internalType": "bool",
          "name": "",
          "type": "bool"
        }
      ],
      "payable": false,
      "stateMutability": "view",
      "type": "function"
    },
    {
      "constant": true,
      "inputs": [],
      "name": "votingDistrict",
      "outputs": [
        {
          "internalType": "bytes32",
          "name": "",
          "type": "bytes32"
        }
      ],
      "payable": false,
      "stateMutability": "view",
      "type": "function"
    },
    {
      "constant": false,
      "inputs": [
        {
          "internalType": "uint256",
          "name": "candidate",
          "type": "uint256"
        }
      ],
      "name": "vote",
      "outputs": [],
      "payable": false,
      "stateMutability": "nonpayable",
      "type": "function"
    },
    {
      "constant": true,
      "inputs": [
        {
          "internalType": "uint256",
          "name": "index",
          "type": "uint256"
        }
      ],
      "name": "getCandidateName",
      "outputs": [
        {
          "internalType": "bytes32",
          "name": "",
          "type": "bytes32"
        }
      ],
      "payable": false,
      "stateMutability": "view",
      "type": "function"
    },
    {
      "constant": true,
      "inputs": [
        {
          "internalType": "uint256",
          "name": "index",
          "type": "uint256"
        }
      ],
      "name": "getVoteCount",
      "outputs": [
        {
          "internalType": "uint256",
          "name": "",
          "type": "uint256"
        }
      ],
      "payable": false,
      "stateMutability": "view",
      "type": "function"
    },
    {
      "constant": true,
      "inputs": [],
      "name": "getWinner",
      "outputs": [
        {
          "internalType": "int256",
          "name": "",
          "type": "int256"
        }
      ],
      "payable": false,
      "stateMutability": "view",
      "type": "function"
    },
    {
      "constant": true,
      "inputs": [],
      "name": "getMaxCount",
      "outputs": [
        {
          "internalType": "uint256",
          "name": "",
          "type": "uint256"
        }
      ],
      "payable": false,
      "stateMutability": "view",
      "type": "function"
    }
  ],
  "bytecode": "0x608060405260006004557fffffffffffffffffffffffffffffffffffffffffffffffffffffffffffffffff60055534801561003957600080fd5b506040516108993803806108998339818101604052606081101561005c57600080fd5b810190808051604051939291908464010000000082111561007c57600080fd5b8382019150602082018581111561009257600080fd5b82518660208202830111640100000000821117156100af57600080fd5b8083526020830192505050908051906020019060200280838360005b838110156100e65780820151818401526020810190506100cb565b50505050905001604052602001805190602001909291908051906020019092919050505033600160006101000a81548173ffffffffffffffffffffffffffffffffffffffff021916908373ffffffffffffffffffffffffffffffffffffffff1602179055508160028190555060008090505b83518110156101fd576000604051806080016040528086848151811061017a57fe5b602002602001015181526020016000815260200142815260200184420181525090806001815401808255809150509060018203906000526020600020906004020160009091929091909150600082015181600001556020820151816001015560408201518160020155606082015181600301555050508080600101915050610158565b50505050610689806102106000396000f3fe608060405234801561001057600080fd5b50600436106100935760003560e01c8063816cbdf811610066578063816cbdf8146101855780638e7ea5b2146101a3578063a3ec138d146101c1578063b2c2f2e81461021d578063e13804a71461025f57610093565b80630121b93f146100985780633477ee2e146100c6578063481c6a751461011d578063716c424e14610167575b600080fd5b6100c4600480360360208110156100ae57600080fd5b81019080803590602001909291905050506102a1565b005b6100f2600480360360208110156100dc57600080fd5b81019080803590602001909291905050506103d5565b6040518085815260200184815260200183815260200182815260200194505050505060405180910390f35b610125610412565b604051808273ffffffffffffffffffffffffffffffffffffffff1673ffffffffffffffffffffffffffffffffffffffff16815260200191505060405180910390f35b61016f610438565b6040518082815260200191505060405180910390f35b61018d61043e565b6040518082815260200191505060405180910390f35b6101ab6104a2565b6040518082815260200191505060405180910390f35b610203600480360360208110156101d757600080fd5b81019080803573ffffffffffffffffffffffffffffffffffffffff169060200190929190505050610506565b604051808215151515815260200191505060405180910390f35b6102496004803603602081101561023357600080fd5b8101908080359060200190929190505050610526565b6040518082815260200191505060405180910390f35b61028b6004803603602081101561027557600080fd5b81019080803590602001909291905050506105a8565b6040518082815260200191505060405180910390f35b600360003373ffffffffffffffffffffffffffffffffffffffff1673ffffffffffffffffffffffffffffffffffffffff16815260200190815260200160002060009054906101000a900460ff16156102f857600080fd5b60016000828154811061030757fe5b9060005260206000209060040201600101600082825401925050819055506000818154811061033257fe5b906000526020600020906004020160010154600454101561037a576000818154811061035a57fe5b906000526020600020906004020160010154600481905550806005819055505b6001600360003373ffffffffffffffffffffffffffffffffffffffff1673ffffffffffffffffffffffffffffffffffffffff16815260200190815260200160002060006101000a81548160ff02191690831515021790555050565b600081815481106103e257fe5b90600052602060002090600402016000915090508060000154908060010154908060020154908060030154905084565b600160009054906101000a900473ffffffffffffffffffffffffffffffffffffffff1681565b60025481565b6000600160009054906101000a900473ffffffffffffffffffffffffffffffffffffffff1673ffffffffffffffffffffffffffffffffffffffff163373ffffffffffffffffffffffffffffffffffffffff161461049a57600080fd5b600454905090565b6000600160009054906101000a900473ffffffffffffffffffffffffffffffffffffffff1673ffffffffffffffffffffffffffffffffffffffff163373ffffffffffffffffffffffffffffffffffffffff16146104fe57600080fd5b600554905090565b60036020528060005260406000206000915054906101000a900460ff1681565b6000600160009054906101000a900473ffffffffffffffffffffffffffffffffffffffff1673ffffffffffffffffffffffffffffffffffffffff163373ffffffffffffffffffffffffffffffffffffffff161461058257600080fd5b6000828154811061058f57fe5b9060005260206000209060040201600101549050919050565b6000600160009054906101000a900473ffffffffffffffffffffffffffffffffffffffff1673ffffffffffffffffffffffffffffffffffffffff163373ffffffffffffffffffffffffffffffffffffffff161461060457600080fd5b6000828154811061061157fe5b906000526020600020906004020160030154421161062e57600080fd5b6000828154811061063b57fe5b906000526020600020906004020160000154905091905056fea265627a7a723158203952c7ecb7b3c74395b8c6ec4c2a52ae90ade14ba356bcff243d113dc920fd3e64736f6c63430005100032",
  "source": "// SPDX-License-Identifier: MIT\r\npragma solidity >=0.4.17 <0.9.0;\r\n\r\ncontract Ballot {\r\n    \r\n    struct Candidates {\r\n        bytes32 name;\r\n        uint voteCount;\r\n        uint creationDate;\r\n        uint expirationDate;\r\n    }\r\n    \r\n    Candidates[] public candidates;\r\n    address public manager;\r\n    bytes32 public votingDistrict;\r\n    mapping(address => bool) public voters;\r\n    uint private maxCount = 0;\r\n    int private winner = -1;\r\n\r\n    modifier restricted() {\r\n        require(msg.sender == manager);\r\n        _;\r\n    }\r\n\r\n    constructor (bytes32[] memory candidateNames, bytes32 district, uint amountOfHours) public {\r\n        manager = msg.sender;\r\n        votingDistrict = district;\r\n    for (uint i = 0;i < candidateNames.length; i++) {\r\n        candidates.push(Candidates({\r\n        name: candidateNames[i],\r\n        voteCount: 0,\r\n        creationDate: now,\r\n        expirationDate: now + amountOfHours\r\n        }));\r\n        }\r\n    }\r\n    \r\n    function vote(uint candidate) public{\r\n        require(!voters[msg.sender]);\r\n        // if(now >\r\n        // candidates[candidate].expirationDate){\r\n        // revert();\r\n        // }\r\n        candidates[candidate].voteCount += 1;\r\n        if(maxCount < candidates[candidate].voteCount){\r\n            maxCount = candidates[candidate].voteCount;\r\n            winner = int(candidate);\r\n        }\r\n    \r\n        voters[msg.sender] = true;\r\n    }\r\n    \r\n    function getCandidateName(uint index) public restricted view returns (bytes32)\r\n    {\r\n        require(now > candidates[index].expirationDate);\r\n        return candidates[index].name;\r\n    }\r\n    \r\n    function getVoteCount(uint index) public restricted view returns (uint)\r\n    {\r\n        //require(now > candidates[index].expirationDate);\r\n        return candidates[index].voteCount;\r\n    }\r\n    \r\n    function getWinner() public restricted view returns (int){\r\n        return winner;\r\n    }\r\n    \r\n    function getMaxCount() public restricted view returns (uint){\r\n        return maxCount;\r\n    }\r\n\r\n}",
  "sourcePath": "D:/blockchain/electiontest/contracts/Ballot.sol",
  "compiler": {
    "name": "solc",
    "version": "0.5.16+commit.9c3226ce.Emscripten.clang"
  },
  "schemaVersion": "3.3.4",
  "updatedAt": "2021-03-27T11:36:33.219Z",
  "networkType": "ethereum",
  "devdoc": {
    "methods": {}
  },
  "userdoc": {
    "methods": {}
  }
}